:020000040000FA
:0E0000002500A3051F0AA305330AA305160A4F
:10040000E201120800081108010803080308130894
:10041000000813080308E2011E0814080E081E084D
:1004200014081A081A0816081E081E080D020009EA
:0A04300026000D020B09270000084A
:04043A0000080008AE
:02043E0040007C
:1004400006000700690068046B046D00A304050939
:10045000990CA3040309A305AD020A0C8D01430600
:060460006D00A305260A51
:0A046600A404C40432000D0C3100A0
:100470007000F002390AF102390AF202360A000865
:0207FE00FF0FEB
:021FFE00940F3E
:00000001FF
