:020000040000FA
:0A0000002500A305210AA305160A36
:10040000E201120800081108010803080308130894
:10041000000813080308E2011E0814080E081E084D
:1004200014081A081A0816081E081E086600670035
:0E0430002D00000926000D020B092700000810
:02043E000008B4
:020440000008B2
:0E044200400006000700690068046B04D70C38
:100450000200A404C40471007000A40C320041071F
:100460002F0A1102A3040309A305A7054106360AB2
:100470004107380A90030F0EA3040309A305A6053C
:100480004106400A4107420A10020F0EA304030965
:10049000A305070541064A0AF2022F0AB00210021C
:1004A0000F0E0A0F4307600A060CF001600C900162
:1004B0004307600A7000B1020A0C91014306710003
:0204C0002D0A03
:0207FE00FF0FEB
:021FFE00B40F1E
:00000001FF
