:020000040000FA
:0A0000002500A3052D0AA305220A1E
:10040000E201120800081108010803080308130894
:10041000000813080308130813081208110813082A
:100420001308E2011E0814080E081E0814081A0812
:100430001A0816081E081E08160818080A081C08BC
:100440000A08020866006700300000092600100252
:060450001109270000085D
:040456000008000892
:06045A004000060007004F
:1004600068006B006C00790C2900D70C02006D004D
:100470006E00100C24006000A40284063B0A100CDD
:10048000A405C404310029052906440AA405C404AE
:10049000110224000002AD000307EE000A02200052
:1004A000ED010306AE028D030F0E2F008E032F0108
:1004B000A405C40472007300080C3400640C030427
:1004C0002F030306F30133033203F402600A13021D
:1004D000360075000A0C96000307710A3600B50253
:1004E0006A0A4107710A1502A3040309A305A705B7
:1004F0004106780A41077A0A1602A3040309A305F4
:10050000A6054106810AA405C404B1029106430A66
:020510003F0AA0
:0207FE00FF0FEB
:021FFE00B40F1E
:00000001FF
