:020000040000FA
:020000000328D3
:040002000034003492
:0A000600831685018701F001003028
:100010008A002130700703188A0A20208312850085
:1000200000308A002C30700703188A0A2B208700C2
:1000300064303620F00A0A3070060319F0010728F0
:100040008200123400341134013403340334133485
:1000500000341334033482001E3414340E341E343E
:0C00600014341A341A3416341E341E34C2
:04006C008312F30008
:100070000D30F200F101F10B3B28F20B3B28F30BA2
:0400800038280034E8
:02400E00E4309C
:00000001FF
