:020000040000FA
:0A0000002500A3052D0AA305220A1E
:10040000E201120800081108010803080308130894
:10041000000813080308130813081208110813082A
:100420001308E2011E0814080E081E0814081A0812
:100430001A0816081E081E08160818080A081C08BC
:100440000A080208660067002D00000926000D0258
:060450001109270000085D
:040456000008000892
:06045A004000060007004F
:1004600068006B006C00790C2900D70C020029058C
:100470002906380A41073A0A8A030F0EA304030922
:10048000A305A7054106420A4107440A0A020F0EC6
:0E049000A3040309A305A60541064C0A370A7A
:0207FE00FF0FEB
:021FFE00B40F1E
:00000001FF
